:100000000C9463000C948B000C948B000C948B006C
:100010000C948B000C948B000C948B000C94550763
:100020000C948B000C948B000C948B000C948B0024
:100030000C948B000C948B000C948B000C948B0014
:100040000C9409080C948B000C94D7070C94B107FE
:100050000C948B000C948B000C948B000C948B00F4
:100060000C9453080C948B0000000000240027001F
:100070002A000000000023002600290000000008DC
:10008000000201000003040700000000000000005F
:10009000010204081020408001020408102001021F
:1000A0000408102000000000250028002B00040494
:1000B0000404040404040202020202020303030310
:1000C00003030200720911241FBECFEFD8E0DEBF88
:1000D000CDBF11E0A0E0B1E0EEE4FFE102C0059089
:1000E0000D92AC37B107D9F723E0ACE7B1E001C01E
:1000F0001D92A930B207E1F710E0C3E6D0E004C0DA
:100100002197FE010E94A40DC236D107C9F70E94B3
:10011000BA090C94A50F0C94000008950895DB0112
:1001200014964D915C9115976D917C91DC01ED9148
:10013000FC910280F381E02D0994AF92BF92CF929F
:10014000DF92EF92FF920F931F93CF93DF936C0197
:100150007B018B01040F151FEB015E01AE18BF0878
:10016000C017D10759F06991D601ED91FC9101902A
:10017000F081E02DC6010995892B79F7C501DF9142
:10018000CF911F910F91FF90EF90DF90CF90BF9094
:10019000AF900895FC01538D448D252F30E0842FBE
:1001A00090E0821B930B541710F0CF96089501979F
:1001B0000895FC01918D828D981761F0A28DAE0F8C
:1001C000BF2FB11D5D968C91928D9F5F9F73928F13
:1001D00090E008958FEF9FEF0895FC01918D828D3F
:1001E000981731F0828DE80FF11D858D90E008950C
:1001F0008FEF9FEF0895FC01918D228D892F90E064
:10020000805C9F4F821B91098F739927089580E529
:1002100092E00E94FB0021E0892B09F420E0822F6C
:10022000089580E090E0892B29F00E940701811158
:100230000C9400000895FC01A48DA80FB92FB11DE6
:10024000A35ABF4F2C91848D90E001968F7399270C
:10025000848FA689B7892C93A089B1898C918370EA
:1002600080648C93938D848D981306C00288F389E3
:10027000E02D80818F7D80830895EF92FF920F9310
:100280001F93CF93DF93EC0181E0888F9B8D8C8D42
:1002900098131AC0E889F989808185FF15C09FB736
:1002A000F894EE89FF896083E889F98980818370F9
:1002B000806480839FBF81E090E0DF91CF911F91A8
:1002C0000F91FF90EF900895F62E0B8D10E00F5FC9
:1002D0001F4F0F731127E02E8C8D8E110CC00FB69F
:1002E00007FCFACFE889F989808185FFF5CFCE0137
:1002F0000E941B01F1CFEB8DEC0FFD2FF11DE35A96
:10030000FF4FF0829FB7F8940B8FEA89FB898081B9
:100310008062CFCFCF93DF93EC01888D8823B9F033
:10032000AA89BB89E889F9898C9185FD03C0808100
:1003300086FD0DC00FB607FCF7CF8C9185FFF2CF7D
:10034000808185FFEDCFCE010E941B01E9CFDF91B7
:10035000CF910895833081F028F4813099F0823074
:10036000A9F008958730A9F08830C9F08430B1F43D
:10037000809180008F7D03C0809180008F77809373
:100380008000089584B58F7784BD089584B58F7DEE
:10039000FBCF8091B0008F778093B000089580915B
:1003A000B0008F7DF9CFCF93DF93282F30E0F90194
:1003B000E458FF4F8491F901E057FF4FD491F901C0
:1003C000E255FF4FC491CC23A1F081110E94AA01F4
:1003D000EC2FF0E0EE0FFF1FEE58FF4FA591B49108
:1003E000EC91ED2381E090E009F480E0DF91CF9182
:1003F000089580E090E0FACF1F93CF93DF93282FEA
:1004000030E0F901E458FF4F8491F901E057FF4FC4
:10041000D491F901E255FF4FC491CC23A9F0162FD6
:1004200081110E94AA01EC2FF0E0EE0FFF1FEC55A6
:10043000FF4FA591B4918FB7F894EC91111108C0BA
:10044000D095DE23DC938FBFDF91CF911F9108956C
:10045000DE2BF8CF9091000189130BC0E2ECF0E0A5
:10046000E4919FEF90930001E13049F028F0E230F1
:1004700061F060E00C94FC0110926E00FACF909154
:100480006F009D7F90936F00F4CF909170009D7FDF
:100490009093700091E09093B0009091B100987F9C
:1004A00094609093B1001092B300E3CFCF93DF93A9
:1004B00090E0FC01E057FF4F249182559F4FFC01D3
:1004C00084918823D1F090E0880F991FFC01E859AE
:1004D000FF4FA591B491FC01EC55FF4FC591D4910C
:1004E000623071F49FB7F8943C91822F80958323FA
:1004F0008C93E8812E2B28839FBFDF91CF910895A5
:100500008FB7F894EC912E2B2C938FBFF6CFCF9210
:10051000DF92EF92FF92CF936C01809100018131C5
:1005200049F08F3F09F44FC0CF91FF90EF90DF90DB
:10053000CF900895E2ECF0E0C491C7FDF5CF61E003
:1005400081E10E945602CC2319F0C23009F0D9C0D3
:10055000F12CE12C68E478EE81E090E0A7019601AF
:100560000E940A0DBA01A90141505109610971099E
:10057000CC2309F406C1C23009F094C04F3F5105A5
:100580006105710509F00CF4BAC064E274EF80E013
:1005900090E0A70196010E940A0DBA01A9014150FD
:1005A00051096109710995E08091B100887F892B1B
:1005B0008093B100C13009F4BCC0C23009F4CEC090
:1005C000C111B2CF8AC081E180930001E2ECF0E07A
:1005D000C491CF3F09F4A8CFC13021F150F0C2300F
:1005E00009F43EC0C7FDA0CF61E081E10E94560240
:1005F000ACCF14BC15BC84B5826084BD85B5816068
:1006000085BDEFEBF0E0E491F0E0EE0FFF1FEC555D
:10061000FF4F85919491E1EAF0E0E491E093430289
:10062000C0E08DCF109280001092810080918100F7
:100630008860809381008091810081608093810037
:10064000EFEBF0E0E491F0E0EE0FFF1FEC55FF4F11
:1006500085919491E1EAF0E0E491E09342026FCF5A
:100660001092B0001092B1008091B000826080932F
:10067000B0008091B10081608093B100EFEBF0E0B9
:10068000E491F0E0EE0FFF1FEC55FF4F8591949140
:100690009093410280934002E1EAF0E0E491E0931C
:1006A0003F024DCF4F3F51056105710541F13CF1CE
:1006B00062E17AE780E090E0A70196010E940A0DCE
:1006C000BA01A9014150510961097109C11162C002
:1006D00094E085B5887F892B85BD47BD8FEF9FEF5F
:1006E000DC0180934C0290934D02A0934E02B09394
:1006F0004F0280916E00826080936E0015CF94E06F
:1007000053CF960150E040E060E072E18AE790E06C
:100710000E940A0DBA01A9014150510961097109EC
:10072000C13009F047CF80918100887F816080933C
:10073000810050938900409388008FEF9FEFDC0188
:100740008093480290934902A0934A02B0934B02CF
:1007500080916F00826080936F00E6CE4093B3007B
:100760008FEF9FEFDC018093440290934502A093AA
:100770004602B093470280917000826080937000BF
:10078000D3CE93E04F3F51056105710511F00CF098
:100790008FCF9FCF96E008CF3FB7F8948091330278
:1007A00090913402A0913502B091360226B5A89BF3
:1007B00005C02F3F19F00196A11DB11D3FBFBA2FF3
:1007C000A92F982F8827BC01CD01620F711D811DB3
:1007D000911D42E0660F771F881F991F4A95D1F738
:1007E00008958F929F92AF92BF92CF92DF92EF9235
:1007F000FF924B015C010E94CC036B017C010E94C3
:10080000CC036C197D098E099F09683E73408105F0
:100810009105A8F321E0821A9108A108B10888EE99
:10082000C80E83E0D81EE11CF11C81149104A104C0
:10083000B10429F7FF90EF90DF90CF90BF90AF9079
:100840009F908F9008952091E401260F3327331F46
:1008500021323105ECF420910802FC0190E080E0A7
:10086000243069F082E00895A091E4012191AC0167
:100870004C535E4FA40FB52FB11D2C9301968617D4
:1008800098F38091E401680F6093E40180E008959B
:1008900081E008951092080281E080930A0210928C
:1008A000090261E082E10E94FC0161E083E10E94B3
:1008B000FC01E9EBF0E080818E7F808380818D7F79
:1008C000808388E48093B80085E48093BC00089519
:1008D000CF93DF9391E09093C3018823B9F0C09147
:1008E000B800D091BA008091BC008A7B8093BC0094
:1008F00060E082E10E94FC0160E083E10E94FC0173
:100900000E944A04D093BA00C093B800DF91CF91FF
:1009100008950895E0913E0280913D02E81730F479
:10092000F0E0E256FE4F808190E008958FEF9FEF58
:10093000089590913E0280913D022FEF3FEF98176E
:1009400048F4E92FF0E0E256FE4F208130E09F5F4F
:1009500090933E02C901089580913D0290913E021C
:10096000891B990B0895CF92DF92EF92FF920F931C
:100970001F93CF93DF937C01CB018A0120919D01CE
:10098000222389F0EB016B01C40ED51ECC15DD05C9
:1009900069F06991D701ED91FC910190F081E02D12
:1009A000C7010995F3CF642F0E942304C801DF918A
:1009B000CF911F910F91FF90EF90DF90CF9008950E
:1009C000CF93DF931F92CDB7DEB7698320919D014E
:1009D0002223F9F020913B02203258F021E030E050
:1009E000FC013383228390E080E00F90DF91CF9170
:1009F000089580913C02E82FF0E0E358FE4F998182
:100A000090838F5F80933C0280933B0281E090E073
:100A1000ECCF61E0CE0101960E942304F7CFCF9284
:100A2000DF92EF92FF920F931F93CF93DF93FC011E
:100A3000C48121E020939D01C0937C0110923C026F
:100A400010923B028385682B8DEE92E00E94E004B9
:100A5000D0913B02D13208F092C00E94CC036B01CE
:100A60007C0180910802811165C082E080930802B8
:100A700081E080930A028FEF8093070210922C028C
:100A8000D0932B02ADE7B1E0EBE0F2E080E0D813C9
:100A900085C010922D0280912D02CC0FC82BC093DF
:100AA0002D0280910902813009F07CC01092090268
:100AB0000E94CC036B017C0180912D028093BB00CE
:100AC0008091BF019091C001A091C101B091C2017C
:100AD000892B8A2B8B2B99F00E94CC030091BF01AC
:100AE0001091C0012091C1013091C2016C197D09A2
:100AF0008E099F090617170728073907E0F180912B
:100B0000BC0083FDD9CF85EC8093BC000E94CC0350
:100B10006B017C0180910802823009F445C080910C
:100B200007028F3F61F180910702803241F180918D
:100B3000070225C08091BF019091C001A091C10121
:100B4000B091C201892B8A2B8B2B09F48ACF0E948A
:100B5000CC030091BF011091C0012091C1013091DF
:100B6000C2016C197D098E099F090617170728070E
:100B7000390708F076CF8091BE010E946804109278
:100B80003C0210923B0210929D01DF91CF911F9188
:100B90000F91FF90EF90DF90CF9008959D919193EA
:100BA0008F5F75CF85EEB0CF8091BF019091C0016E
:100BB000A091C101B091C201892B8A2B8B2B09F422
:100BC000A9CF0E94CC030091BF011091C0012091D8
:100BD000C1013091C2016C197D098E099F09061768
:100BE00017072807390708F095CFC5CF089590E07B
:100BF00080E00895FC0101900020E9F73197AF01F2
:100C0000481B590BBC0189EF92E00C949D00CF93D7
:100C1000DF93BC0180E592E00E948F00EC0142E08E
:100C200050E063E471E080E592E00E949D008C0F4B
:100C30009D1FDF91CF9108950F931F93CF938C0148
:100C4000C62F0E940F056C2F6460C8010E940F051B
:100C50006C2F6B7FC8010E940F0583EC90E0019719
:100C6000F1F7CF911F910F9108950F931F93CF9399
:100C7000DF938C01D62FC42F607F642B0E941C064B
:100C800080E1D89FB00111246C2BC801DF91CF9176
:100C90001F910F910C941C06CF93DF93CDB7DEB755
:100CA00028970FB6F894DEBF0FBECDBF98E0EBE0FB
:100CB000F1E0DE01119601900D929A95E1F7909185
:100CC0000103981708F48FEF90E0880F991F21E037
:100CD00030E02C0F3D1F820F931FFC016081606884
:100CE00040E089EF92E028960FB6F894DEBF0FBE81
:100CF000CDBFDF91CF910C94350641E00E943506BF
:100D000081E090E008950F931F93CF93DF93EC0160
:100D100088819981009759F02A813B8126173707EE
:100D200030F081E0DF91CF911F910F9108958B01F9
:100D30006F5F7F4F0E94CF0E009759F09983888391
:100D40001B830A832C813D81232B59F7FC011082E0
:100D5000E8CF80E0E7CFEF92FF920F931F93CF93FE
:100D6000DF93EC017B01198218821B821A821D829B
:100D70001C82FB0101900020E9F731978F01061BCF
:100D8000170BB8010E94830628813981811113C095
:100D90002115310519F0C9010E94460E19821882E9
:100DA0001D821C821B821A82DF91CF911F910F91AD
:100DB000FF90EF9008951D830C83B701C901DF9167
:100DC000CF911F910F91FF90EF900C949E0FEF9297
:100DD000FF920F931F93CF93DF93EC017B01FB01F5
:100DE00001900020E9F731978F01061B170BB8011E
:100DF0000E94830628813981811113C02115310594
:100E000019F0C9010E94460E198218821D821C82A7
:100E10001B821A82DF91CF911F910F91FF90EF906B
:100E200008951D830C83B701C901DF91CF911F91F4
:100E30000F91FF90EF900C949E0F85ED8093BC0076
:100E40008091BF019091C001A091C101B091C201F8
:100E50000796A11DB11D23E0B695A7959795879597
:100E60002A95D1F72091BC0024FD03C010920802FE
:100E700008954091BF015091C0016091C1017091EE
:100E8000C201452B462B472B69F30097A105B105FD
:100E900041F02AE22A95F1F700C00197A109B109B2
:100EA000E1CF8091BE010C9468041F920F920FB69F
:100EB0000F9211242F933F934F935F936F937F93E0
:100EC0008F939F93AF93BF93EF93FF9380914402CF
:100ED00090914502A0914602B0914702892B8A2B3E
:100EE0008B2BD1F190913F02E0914002F0914102B1
:100EF0008081892780838091440290914502A0914E
:100F00004602B0914702181619061A061B069CF4F1
:100F10008091440290914502A0914602B09147020F
:100F20000197A109B1098093440290934502A093CF
:100F30004602B0934702FF91EF91BF91AF919F910D
:100F40008F917F916F915F914F913F912F910F9072
:100F50000FBE0F901F901895809100010E942A02E9
:100F6000EACF1F920F920FB60F9211242F933F9347
:100F70004F935F936F937F938F939F93AF93BF93A1
:100F8000EF93FF9380E592E00E941B01FF91EF91A8
:100F9000BF91AF919F918F917F916F915F914F9191
:100FA0003F912F910F900FBE0F901F9018951F9299
:100FB0000F920FB60F9211242F938F939F93EF935D
:100FC000FF93E0916002F09161028081E0916602FE
:100FD000F091670282FD1BC09081809169028F5F52
:100FE0008F7320916A02821741F0E0916902F0E06C
:100FF000E05BFD4F958F80936902FF91EF919F9188
:101000008F912F910F900FBE0F901F901895808198
:10101000F4CF1F920F920FB60F9211242F933F938C
:101020008F939F93AF93BF9380912F029091300243
:10103000A0913102B091320230912E0223E0230FB1
:101040002D3758F50196A11DB11D20932E028093D6
:101050002F0290933002A0933102B093320280911C
:10106000330290913402A0913502B091360201967C
:10107000A11DB11D8093330290933402A0933502D9
:10108000B0933602BF91AF919F918F913F912F9175
:101090000F900FBE0F901F90189526E8230F029611
:1010A000A11DB11DD2CF1F920F920FB60F92112426
:1010B0002F933F934F935F936F937F938F939F9360
:1010C000AF93BF93EF93FF938091B900887F8036F1
:1010D00009F44AC0F0F5883209F4A7C018F5803148
:1010E00009F49BC0B8F4882309F4F9C0883009F4E6
:1010F00094C0FF91EF91BF91AF919F918F917F919C
:101100006F915F914F913F912F910F900FBE0F9074
:101110001F901895883109F488C0803251F7809368
:10112000070214C0803409F49DC040F48033B9F341
:101130008833F9F68093070285ECB0C0803509F456
:1011400085C0883509F496C0883499F60E941D0739
:10115000D0CF883909F48CC038F5883729F050F49D
:10116000883611F0803729F683E0809308021092C8
:10117000060257C0883809F47BC0803919F08038DE
:1011800009F0B7CF80910602803208F071C0E0917B
:10119000060281E08E0F809306028091BB00F0E092
:1011A000EA51FE4F80833DC0803B39F0E0F4803A45
:1011B00009F479C0883A09F09CCF84E08093080252
:1011C0001092E5011092E401E0913902F0913A02A7
:1011D00009958091E40181110FC081E08093E401C1
:1011E0001092C40109C0803C09F4A6CF883C09F4E0
:1011F000A3CF883B09F07DCFE091E50181E08E0F20
:101200008093E501F0E0EC53FE4F80818093BB00BA
:101210009091E5018091E40129C080912D02809395
:10122000BB0085EC8093BC0064CF90912C02809130
:101230002B02981758F5E0912C0281E08E0F8093D5
:101240002C02F0E0E55FFD4F8081E9CFE0912C02B8
:1012500081E08E0F80932C028091BB00F0E0E55F6F
:10126000FD4F808390912C0280912B029817C8F239
:1012700085E8D8CFE0912C0281E08E0F80932C027C
:101280008091BB00F0E0E55FFD4F808380910A0212
:1012900081115CCF81E08093090284EA8093BC00D5
:1012A0001092080226CF85EC8093BC0010920802B1
:1012B00080910602803230F4E0910602F0E0EA51BB
:1012C000FE4F10826091060270E0E0913702F091CB
:1012D000380286EE91E00995109206020ACF10922C
:1012E000070234CFE0E5F2E01382128288EE93E049
:1012F000A0E0B0E084839583A683B78327E131E043
:101300003183208325EC30E03587248724EC30E0DE
:101310003787268720EC30E0318B208B21EC30E0C2
:10132000338B228B22EC30E0358B248B26EC30E0A3
:10133000378B268B118E128E138E148EEDEEF2E00B
:101340001382128284839583A683B78389E291E016
:1013500091838083E9EFF2E0138212828BE391E0C4
:101360009183808387E2848380E1818782E0828722
:1013700013860895CF93DF93CDB7DEB768970FB686
:10138000F894DEBF0FBECDBF789484B5826084BD73
:1013900084B5816084BD85B5826085BD85B5816079
:1013A00085BD80916E00816080936E0010928100F7
:1013B00080918100826080938100809181008160B2
:1013C0008093810080918000816080938000809173
:1013D000B10084608093B1008091B00081608093FF
:1013E000B00080917A00846080937A0080917A00C6
:1013F000826080937A0080917A00816080937A0085
:1014000080917A00806880937A001092C1001092D7
:101410003E0210923D0210923C0210923B020E944A
:101420004A048DE890E090933A02809339028EE866
:1014300090E090933802809337021092FE028091E0
:101440000303823018F098E09093FE02809301032A
:1014500062E370E080E090E00E94F1036091040399
:1014600089EF92E00E940F0568EE73E080E090E063
:101470000E94F10360E389EF92E00E941C060BE4F6
:1014800016E4C8010197F1F760E389EF92E00E944A
:101490001C06C8010197F1F760E389EF92E00E9412
:1014A0001C0683E592E00197F1F760E289EF92E094
:1014B0000E941C066091FE02606240E089EF92E0AB
:1014C0000E94350684E08093FF0240E06CE089EFE3
:1014D00092E00E94350640E061E089EF92E00E94D0
:1014E00035060BE31FE1C8010197F1F732E0F32E57
:1014F000F092000340E066E089EF92E00E9435063A
:1015000040E062E089EF92E00E943506C801019751
:10151000F1F788E08093040360E089EF92E00E9495
:101520000F05E0916002F0916102F082E0915C02AF
:10153000F0915D021082E0915E02F0915F028FEC0B
:10154000808310926802E0916402F091650286E067
:101550008083E0916202F0916302808180618083E8
:10156000E0916202F0916302808188608083E09163
:101570006202F0916302808180688083E091620260
:10158000F091630280818F7D808361E080E10E9421
:10159000560261E08FE00E94560261E08AE00E94FC
:1015A000560262E08BE00E94560262E08CE00E94EC
:1015B000560262E08DE00E94560280E480937C0037
:1015C00080917A00806480937A0080917A0086FD11
:1015D000FCCF6091780070917900072E000C880B89
:1015E000990B611571058105910511F00E94010D9E
:1015F00083E0482E512C612C712CCE0101967C0188
:101600009BE3292E9FE1392E20E0822E20E0922EAE
:101610000E94B20CA30192010E940A0D8B010F5F80
:101620001F4F65E471E0CE0143960E94AB068BE04C
:101630000E94D301892B09F427C18CE00E94D301B9
:10164000892B09F436C18DE00E94D301892B79F7EB
:101650000130110509F0A1C06FE471E0CE0143969D
:101660000E94E70603E010E00AC00230110509F00D
:101670008DC066E471E0CE0143960E94E70668E5FE
:1016800071E0C7010E94AB0661E671E0CE010796EA
:101690000E94AB0666E671E0CE010D960E94AB0695
:1016A0008F89988D01501109892B09F4B7C0AB8837
:1016B000BC8864E571E0C5010E94950FE6E0E09FFB
:1016C0006001E19FD00C1124CE0CDF1C892B09F0A6
:1016D0006FC061E08AE00E94FC0180E00E944C063D
:1016E0008CE691E00E94FA05B60189EF92E00E9433
:1016F0008F0081E00E944C0683E791E00E94FA058A
:10170000BE016D5E7F4F89EF92E00E948F00CE0197
:1017100043960E9407068BE092E00E9487026CEDE0
:1017200075E080E090E00E94F10360E08AE00E94B2
:10173000FC0140E061E089EF92E00E943506C101C2
:101740000197F1F781E10E942A028E010D5E1F4F81
:1017500006501109F80180819181009711F00E94D3
:10176000460EE016F106A1F78B899C89009711F0CF
:101770000E94460E8114910409F44ACF0E94070189
:10178000882309F445CF0E94000042CF03301105A1
:1017900009F099C06FE471E092C00230110519F4AC
:1017A00064E571E05BCF0330110509F05BCF61CFD9
:1017B0006FE471E0C5010E94950F892B79F561E016
:1017C00080E10E94FC0180E00E944C068CE691E0E2
:1017D0000E94FA05B60189EF92E00E948F0081E035
:1017E0000E944C0683E791E00E94FA05BE016D5EFF
:1017F0007F4F89EF92E00E948F00CE0143960E94B6
:10180000070686E091E00E9487026CED75E080E0BB
:1018100090E00E94F10360E080E189CF61E08FE019
:101820000E94FC0180E00E944C068CE691E00E9440
:10183000FA05F6E0F09FB001F19F700D11246E0DD6
:101840007F1D89EF92E00E948F0081E00E944C068C
:1018500083E791E00E94FA05BE016D5E7F4F89EF3C
:1018600092E00E948F00CE0143960E94070688E80E
:1018700091E00E9487026CED75E080E090E00E94AC
:10188000F10360E08FE053CF0130110509F4F1CE90
:101890006FE471E00230110529F00330110531F4D5
:1018A00064E571E0CE0143960E94E70601E010E096
:1018B000E6CE0130110509F0D8CE64E571E0CE0125
:1018C00043960E94E70602E010E0D9CE8F929F92E5
:1018D000AF92BF92CF92DF92EF92FF92CF93DF93BE
:1018E000EC01688179818A819B816115710581058F
:1018F000910521F464E279ED8BE597E02DE133EF7A
:1019000041E050E00E940A0D49015A019B01AC01DF
:10191000A7EAB1E40E94290D6B017C01ACEEB4EFA3
:10192000A50194010E94370DC60ED71EE81EF91EB0
:10193000F7FE06C081E0C81AD108E10880E8F80A7D
:10194000C882D982EA82FB82C701B6019F77DF9104
:10195000CF91FF90EF90DF90CF90BF90AF909F908E
:101960008F9008958F929F92AF92BF92CF92DF9205
:10197000EF92FF9260910101709102018091030149
:1019800090910401611571058105910521F464E2CE
:1019900079ED8BE597E02DE133EF41E050E00E94D7
:1019A0000A0D49015A019B01AC01A7EAB1E40E946A
:1019B000290D6B017C01ACEEB4EFA50194010E94EE
:1019C000370DC60ED71EE81EF91EF7FE06C081E0D1
:1019D000C81AD108E10880E8F80AC0920101D09243
:1019E0000201E0920301F0920401C701B6019F7762
:1019F000FF90EF90DF90CF90BF90AF909F908F902F
:101A00000895609301017093020180930301909304
:101A100004010895052E97FB1EF400940E94210DE9
:101A200057FD07D00E94730D07FC03D04EF40C94B1
:101A3000210D50954095309521953F4F4F4F5F4F69
:101A4000089590958095709561957F4F8F4F9F4F2A
:101A500008950E94950DA59F900DB49F900DA49F91
:101A6000800D911D11240895B7FF0C94290D0E943B
:101A7000290D821B930B08952F923F924F925F92F4
:101A80006F927F928F929F92AF92BF92CF92DF928E
:101A9000EF92FF920F931F93CF93DF93CDB7DEB7F3
:101AA000CA1BDB0B0FB6F894DEBF0FBECDBF099487
:101AB0002A88398848885F846E847D848C849B84DE
:101AC000AA84B984C884DF80EE80FD800C811B81EC
:101AD000AA81B981CE0FD11D0FB6F894DEBF0FBE1B
:101AE000CDBFED010895A1E21A2EAA1BBB1BFD017B
:101AF0000DC0AA1FBB1FEE1FFF1FA217B307E407ED
:101B0000F50720F0A21BB30BE40BF50B661F771F44
:101B1000881F991F1A9469F7609570958095909524
:101B20009B01AC01BD01CF010895A29FB001B39FFD
:101B3000C001A39F700D811D1124911DB29F700DD6
:101B4000811D1124911D0895EE0FFF1F0590F49142
:101B5000E02D09940F931F93CF93DF93823091056B
:101B600010F482E090E0E0910703F091080330E088
:101B700020E0B0E0A0E0309799F42115310509F498
:101B80004AC0281B390B24303105D8F58A819B8146
:101B90006115710589F1FB0193838283FE0111C0F8
:101BA000408151810281138148175907E0F048179D
:101BB000590799F4109761F012960C9312971396A7
:101BC0001C933296CF01DF91CF911F910F91089511
:101BD0000093070310930803F4CF2115310551F04A
:101BE0004217530738F0A901DB019A01BD01DF015B
:101BF000F801C1CFEF01F9CF909308038093070359
:101C0000CDCFFE01E20FF31F819391932250310952
:101C100039832883D7CF2091050330910603232BE6
:101C200041F420910701309108013093060320937D
:101C3000050320910501309106012115310541F47C
:101C40002DB73EB74091090150910A01241B350B75
:101C5000E0910503F0910603E217F307A0F42E1BB1
:101C60003F0B2817390778F0AC014E5F5F4F241700
:101C7000350748F04E0F5F1F50930603409305034E
:101C8000819391939FCFF0E0E0E09CCFCF93DF93DF
:101C90000097E9F0FC01329713821282A0910703AA
:101CA000B0910803ED0130E020E01097A1F420810D
:101CB0003181820F931F209105033091060328176D
:101CC000390709F061C0F0930603E0930503DF9143
:101CD000CF910895EA01CE17DF07E8F54A815B81CD
:101CE0009E0141155105B1F7E901FB83EA83499152
:101CF0005991C40FD51FEC17FD0761F480819181C4
:101D00000296840F951FE9019983888382819381CC
:101D10009B838A83F0E0E0E012968D919C9113976B
:101D20000097B9F52D913C911197CD010296820F44
:101D3000931F20910503309106032817390739F6C0
:101D4000309751F51092080310920703B0930603E1
:101D5000A0930503BCCFD383C28340815181840FFC
:101D6000951FC817D90761F44E5F5F4F888199812D
:101D7000480F591F518340838A819B8193838283BB
:101D80002115310509F0B0CFF0930803E093070364
:101D90009ECFFD01DC01C0CF13821282D7CFB0E00D
:101DA000A0E0E5EDFEE00C943E0D8C01009751F4AF
:101DB000CB010E94AA0D8C01C801CDB7DEB7E0E1CE
:101DC0000C945A0DFC01E60FF71F9C0122503109BB
:101DD000E217F30708F49DC0D901CD91DC9111976A
:101DE000C617D70798F0C530D10530F3CE01049758
:101DF0008617970708F3C61BD70B2297C193D19379
:101E00006D937C93CF010E94460ED6CF5B01AC1A36
:101E1000BD0A4C018C0E9D1EA0910703B0910803D2
:101E2000512C412CF12CE12C109731F580910503B8
:101E3000909106038815990509F05CC0461657066F
:101E400008F058C08091050190910601009741F477
:101E50008DB79EB74091090150910A01841B950BE3
:101E6000E817F90708F055C0F0930603E09305035F
:101E7000F90171836083A0CF8D919C911197129687
:101E80006C90129713967C901397A815B90559F585
:101E90006C0142E0C40ED11CCA14DB0420F1AC0179
:101EA0004A195B09DA011296159780F062827382F3
:101EB00051834083D9016D937C93E114F10471F057
:101EC000D7011396FC93EE93129776CF22968C0F40
:101ED0009D1FF90191838083F301EFCFF0930803F5
:101EE000E093070369CF4816590608F42C017D01D9
:101EF000D3019ACFCB010E94AA0D7C01009749F033
:101F0000AE01B8010E948C0FC8010E94460E8701E5
:101F100053CF10E000E050CFFB01DC0102C0019084
:101F20000D9241505040D8F70895FB01DC018D918E
:101F3000019080190110D9F3990B0895FB01DC0180
:0E1F400001900D920020E1F70895F894FFCF74
:101F4E00FF010000000000090380000000400014A3
:101F5E00005400000000003D019D00CA008A01FBF4
:101F6E0000D900ED0000000000E004B304F705897D
:101F7E0004AC0499048A04000000007D069D00F75D
:101F8E0005F6050D0A007769746864726177006C56
:101F9E006F73650077696E0053636973736F727345
:101FAE0000726F636B00506170657200496E7075E0
:0C1FBE00743A004F7574636F6D653A0053
:00000001FF
