:020000040000FA
:100000000C9463000C948B000C948B000C948B006C
:100010000C948B000C948B000C948B000C945B065E
:100020000C948B000C948B000C948B000C948B0024
:100030000C948B000C948B000C948B000C948B0014
:100040000C94B7060C948B000C948B000C948B00D2
:100050000C948B000C948B000C948B000C948B00F4
:100060000C9401070C948B00000000002400270072
:100070002A000000000023002600290000000008DC
:10008000000201000003040700000000000000005F
:10009000010204081020408001020408102001021F
:1000A0000408102000000000250028002B00040494
:1000B0000404040404040202020202020303030310
:1000C00003030200200811241FBECFEFD8E0DEBFDB
:1000D000CDBF11E0A0E0B1E0E0EBFBE102C0059094
:1000E0000D92A836B107D9F722E0A8E6B1E001C029
:1000F0001D92A835B207E1F710E0C3E6D0E004C0D6
:100100002197FE010E94D50BC236D107C9F70E9484
:1001100040080C94D60D0C94000008950895AF92F9
:10012000BF92CF92DF92EF92FF920F931F93CF93E4
:10013000DF936C017B018B01040F151FEB015E0146
:10014000AE18BF08C017D10759F06991D601ED91DB
:10015000FC910190F081E02DC6010995892B79F77A
:10016000C501DF91CF911F910F91FF90EF90DF902C
:10017000CF90BF90AF900895FC014481558160817C
:10018000718188E492E00C948F00833081F028F430
:10019000813099F08230A9F008958730A9F0883035
:1001A000C9F08430B1F4809180008F7D03C08091CC
:1001B00080008F7780938000089584B58F7784BD09
:1001C000089584B58F7DFBCF8091B0008F778093A9
:1001D000B00008958091B0008F7DF9CFCF93DF9369
:1001E000282F30E0F901E458FF4F8491F901E057DE
:1001F000FF4FD491F901E255FF4FC491CC23A1F0F8
:1002000081110E94C500EC2FF0E0EE0FFF1FEE58A9
:10021000FF4FA591B491EC91ED2381E090E009F4BA
:1002200080E0DF91CF91089580E090E0FACF1F93B6
:10023000CF93DF93282F30E0F901E458FF4F8491EA
:10024000F901E057FF4FD491F901E255FF4FC491F6
:10025000CC23A9F0162F81110E94C500EC2FF0E0ED
:10026000EE0FFF1FEC55FF4FA591B4918FB7F89497
:10027000EC91111108C0D095DE23DC938FBFDF9184
:10028000CF911F910895DE2BF8CF90910001891333
:100290000BC0E2ECF0E0E4919FEF90930001E130BD
:1002A00049F028F0E23061F060E00C941701109200
:1002B0006E00FACF90916F009D7F90936F00F4CF06
:1002C000909170009D7F9093700091E09093B000AA
:1002D0009091B100987F94609093B1001092B30018
:1002E000E3CFCF93DF9390E0FC01E057FF4F2491E1
:1002F00082559F4FFC0184918823D1F090E0880FB4
:10030000991FFC01E859FF4FA591B491FC01EC55F0
:10031000FF4FC591D491623071F49FB7F8943C912E
:10032000822F809583238C93E8812E2B28839FBF77
:10033000DF91CF9108958FB7F894EC912E2B2C93E9
:100340008FBFF6CFCF92DF92EF92FF92CF936C01E7
:1003500080910001853049F08F3F09F44FC0CF9163
:10036000FF90EF90DF90CF900895E2ECF0E0C49121
:10037000C7FDF5CF61E085E00E947101CC2319F043
:10038000C23009F0D9C0F12CE12C68E478EE81E0AC
:1003900090E0A70196010E943B0BBA01A9014150D0
:1003A000510961097109CC2309F406C1C23009F071
:1003B00094C04F3F51056105710509F00CF4BAC0B6
:1003C00064E274EF80E090E0A70196010E943B0B8D
:1003D000BA01A901415051096109710995E0809163
:1003E000B100887F892B8093B100C13009F4BCC073
:1003F000C23009F4CEC0C111B2CF8AC085E080936B
:100400000001E2ECF0E0C491CF3F09F4A8CFC13085
:1004100021F150F0C23009F43EC0C7FDA0CF61E029
:1004200085E00E947101ACCF14BC15BC84B582601C
:1004300084BD85B5816085BDE3EBF0E0E491F0E03B
:10044000EE0FFF1FEC55FF4F85919491E5E9F0E029
:10045000E491E0932F02C0E08DCF109280001092C3
:10046000810080918100886080938100809181006B
:10047000816080938100E3EBF0E0E491F0E0EE0F27
:10048000FF1FEC55FF4F85919491E5E9F0E0E49171
:10049000E0932E026FCF1092B0001092B1008091C5
:1004A000B00082608093B0008091B1008160809341
:1004B000B100E3EBF0E0E491F0E0EE0FFF1FEC554C
:1004C000FF4F8591949190932D0280932C02E5E942
:1004D000F0E0E491E0932B024DCF4F3F51056105D1
:1004E000710541F13CF162E17AE780E090E0A7011B
:1004F00096010E943B0BBA01A901415051096109C3
:100500007109C11162C094E085B5887F892B85BDD2
:1005100047BD8FEF9FEFDC01809338029093390243
:10052000A0933A02B0933B0280916E008260809368
:100530006E0015CF94E053CF960150E040E060E0AC
:1005400072E18AE790E00E943B0BBA01A901415099
:10055000510961097109C13009F047CF80918100CB
:10056000887F816080938100509389004093880048
:100570008FEF9FEFDC018093340290933502A093BC
:100580003602B093370280916F00826080936F00D3
:10059000E6CE4093B3008FEF9FEFDC0180933002F3
:1005A00090933102A0933202B09333028091700095
:1005B000826080937000D3CE93E04F3F5105610578
:1005C000710511F00CF08FCF9FCF96E008CF3FB7A9
:1005D000F89480911F0290912002A0912102B09185
:1005E000220226B5A89B05C02F3F19F00196A11D38
:1005F000B11D3FBFBA2FA92F982F8827BC01CD016D
:10060000620F711D811D911D42E0660F771F881FCB
:10061000991F4A95D1F708958F929F92AF92BF92FA
:10062000CF92DF92EF92FF924B015C010E94E702B2
:100630006B017C010E94E7026C197D098E099F09FC
:10064000683E734081059105A8F321E0821A910864
:10065000A108B10888EEC80E83E0D81EE11CF11C89
:1006600081149104A104B10429F7FF90EF90DF9069
:10067000CF90BF90AF909F908F9008952091D00120
:10068000260F3327331F21323105ECF42091F4017A
:10069000FC0190E080E0243069F082E00895A091B0
:1006A000D0012191AC0140555E4FA40FB52FB11D73
:1006B0002C930196861798F38091D001680F609370
:1006C000D00180E0089581E008951092F40181E066
:1006D0008093F6011092F50161E082E10E9417011A
:1006E00061E083E10E941701E9EBF0E080818E7FF9
:1006F000808380818D7F808388E48093B80085E447
:100700008093BC000895CF93DF9391E09093AF0165
:100710008823B9F0C091B800D091BA008091BC0094
:100720008A7B8093BC0060E082E10E94170160E058
:1007300083E10E9417010E946503D093BA00C09321
:10074000B800DF91CF9108950895E0912A02809139
:100750002902E81730F4F0E0E657FE4F808190E080
:1007600008958FEF9FEF089590912A0280912902BA
:100770002FEF3FEF981748F4E92FF0E0E657FE4FD0
:10078000208130E09F5F90932A02C90108958091F3
:10079000290290912A02891B990B0895CF92DF922A
:1007A000EF92FF920F931F93CF93DF937C01CB01C6
:1007B0008A0120918901222389F0EB016B01C40E8B
:1007C000D51ECC15DD0569F06991D701ED91FC913D
:1007D0000190F081E02DC7010995F3CF642F0E94AD
:1007E0003E03C801DF91CF911F910F91FF90EF90D1
:1007F000DF90CF900895CF93DF931F92CDB7DEB7F0
:100800006983209189012223F9F020912702203267
:1008100058F021E030E0FC013383228390E080E057
:100820000F90DF91CF91089580912802E82FF0E09A
:10083000E759FE4F998190838F5F809328028093C0
:10084000270281E090E0ECCF61E0CE0101960E94AA
:100850003E03F7CFCF92DF92EF92FF920F931F9359
:10086000CF93DF93FC01C48121E020938901C093E1
:10087000680110922802109227028385682B8CE36E
:1008800092E00E94FB03D0912702D13208F092C07F
:100890000E94E7026B017C018091F401811165C027
:1008A00082E08093F40181E08093F6018FEF8093E2
:1008B000F30110921802D0931702A9E6B1E0E7EF16
:1008C000F1E080E0D81385C01092190280911902DE
:1008D000CC0FC82BC09319028091F501813009F02B
:1008E0007CC01092F5010E94E7026B017C018091AF
:1008F00019028093BB008091AB019091AC01A09153
:10090000AD01B091AE01892B8A2B8B2B99F00E94FF
:10091000E7020091AB011091AC012091AD01309143
:10092000AE016C197D098E099F0906171707280764
:100930003907E0F18091BC0083FDD9CF85EC80932D
:10094000BC000E94E7026B017C018091F4018230BF
:1009500009F445C08091F3018F3F61F18091F3016B
:10096000803241F18091F30125C08091AB019091DB
:10097000AC01A091AD01B091AE01892B8A2B8B2BDC
:1009800009F48ACF0E94E7020091AB011091AC01FB
:100990002091AD013091AE016C197D098E099F093E
:1009A000061717072807390708F076CF8091AA01A4
:1009B0000E9483031092280210922702109289014C
:1009C000DF91CF911F910F91FF90EF90DF90CF902B
:1009D00008959D9191938F5F75CF85EEB0CF8091F3
:1009E000AB019091AC01A091AD01B091AE01892B0A
:1009F0008A2B8B2B09F4A9CF0E94E7020091AB014F
:100A00001091AC012091AD013091AE016C197D09BE
:100A10008E099F09061717072807390708F095CF91
:100A2000C5CF089590E080E00895FC01019000207A
:100A3000E9F73197AF01481B590BBC0188E492E0FC
:100A40000C948F000F931F93CF938C01C62F0E949D
:100A50002A046C2F6460C8010E942A046C2F6B7FEB
:100A6000C8010E942A0483EC90E00197F1F7CF912E
:100A70001F910F9108950F931F93CF93DF938C01D4
:100A8000D62FC42F607F642B0E94220580E1D89F5F
:100A9000B00111246C2BC801DF91CF911F910F91F0
:100AA0000C942205CF93DF93CDB7DEB728970FB60E
:100AB000F894DEBF0FBECDBF98E0EBE0F1E0DE01C1
:100AC000119601900D929A95E1F790915002981726
:100AD00008F48FEF90E0880F991F21E030E02C0F91
:100AE0003D1F820F931FFC016081606840E088E435
:100AF00092E028960FB6F894DEBF0FBECDBFDF910F
:100B0000CF910C943B0541E00E943B0581E090E0D1
:100B100008950F931F93CF93DF93EC018881998100
:100B2000009759F02A813B812617370730F081E082
:100B3000DF91CF911F910F9108958B016F5F7F4FD0
:100B40000E94000D009759F0998388831B830A83C4
:100B50002C813D81232B59F7FC011082E8CF80E0E6
:100B6000E7CFEF92FF920F931F93CF93DF93EC01A8
:100B70007B01198218821B821A821D821C82FB0152
:100B800001900020E9F731978F01061B170BB80180
:100B90000E94890528813981811113C021153105F1
:100BA00019F0C9010E94770C198218821D821C82DB
:100BB0001B821A82DF91CF911F910F91FF90EF90CE
:100BC00008951D830C83B701C901DF91CF911F9157
:100BD0000F91FF90EF900C94CF0DEF92FF920F9337
:100BE0001F93CF93DF93EC017B01FB010190002069
:100BF000E9F731978F01061B170BB8010E94890591
:100C000028813981811113C02115310519F0C901DD
:100C10000E94770C198218821D821C821B821A8204
:100C2000DF91CF911F910F91FF90EF9008951D8359
:100C30000C83B701C901DF91CF911F910F91FF90F4
:100C4000EF900C94CF0D85ED8093BC008091AB01AB
:100C50009091AC01A091AD01B091AE010796A11D9C
:100C6000B11D23E0B695A795979587952A95D1F75D
:100C70002091BC0024FD03C01092F401089540911E
:100C8000AB015091AC016091AD017091AE01452B6B
:100C9000462B472B69F30097A105B10541F02AE2E5
:100CA0002A95F1F700C00197A109B109E1CF809120
:100CB000AA010C9483031F920F920FB60F92112476
:100CC0002F933F934F935F936F937F938F939F9354
:100CD000AF93BF93EF93FF938091300290913102D5
:100CE000A0913202B0913302892B8A2B8B2BD1F148
:100CF00090912B02E0912C02F0912D0280818927A6
:100D000080838091300290913102A0913202B091A3
:100D10003302181619061A061B069CF4809130023D
:100D200090913102A0913202B09133020197A10952
:100D3000B1098093300290933102A0933202B093B4
:100D40003302FF91EF91BF91AF919F918F917F916E
:100D50006F915F914F913F912F910F900FBE0F9028
:100D60001F901895809100010E944501EACF1F92C3
:100D70000F920FB60F9211242F933F938F939F934F
:100D8000AF93BF9380911B0290911C02A0911D0212
:100D9000B0911E0230911A0223E0230F2D3758F52F
:100DA0000196A11DB11D20931A0280931B029093FE
:100DB0001C02A0931D02B0931E0280911F0290910D
:100DC0002002A0912102B09122020196A11DB11D25
:100DD00080931F0290932002A0932102B0932202DD
:100DE000BF91AF919F918F913F912F910F900FBE27
:100DF0000F901F90189526E8230F0296A11DB11D94
:100E0000D2CF1F920F920FB60F9211242F933F93C0
:100E10004F935F936F937F938F939F93AF93BF9302
:100E2000EF93FF938091B900887F803609F44AC020
:100E3000F0F5883209F4A7C018F5803109F49BC099
:100E4000B8F4882309F4F9C0883009F494C0FF91FC
:100E5000EF91BF91AF919F918F917F916F915F9132
:100E60004F913F912F910F900FBE0F901F901895AB
:100E7000883109F488C0803251F78093F30114C09F
:100E8000803409F49DC040F48033B9F38833F9F617
:100E90008093F30185ECB0C0803509F485C08835B6
:100EA00009F496C0883499F60E942306D0CF883979
:100EB00009F48CC038F5883729F050F4883611F0E1
:100EC000803729F683E08093F4011092F20157C035
:100ED000883809F47BC0803919F0803809F0B7CF21
:100EE0008091F201803208F071C0E091F20181E05E
:100EF0008E0F8093F2018091BB00F0E0EE52FE4F26
:100F000080833DC0803B39F0E0F4803A09F479C039
:100F1000883A09F09CCF84E08093F4011092D101CB
:100F20001092D001E0912502F0912602099580915E
:100F3000D00181110FC081E08093D0011092B001E7
:100F400009C0803C09F4A6CF883C09F4A3CF883BB4
:100F500009F07DCFE091D10181E08E0F8093D10126
:100F6000F0E0E055FE4F80818093BB009091D1016D
:100F70008091D00129C0809119028093BB0085EC3B
:100F80008093BC0064CF909118028091170298174B
:100F900058F5E091180281E08E0F80931802F0E07E
:100FA000E950FE4F8081E9CFE091180281E08E0F79
:100FB000809318028091BB00F0E0E950FE4F8083DF
:100FC00090911802809117029817C8F285E8D8CF3F
:100FD000E091180281E08E0F809318028091BB008F
:100FE000F0E0E950FE4F80838091F60181115CCFE3
:100FF00081E08093F50184EA8093BC001092F401B3
:1010000026CF85EC8093BC001092F4018091F20110
:10101000803230F4E091F201F0E0EE52FE4F1082A7
:101020006091F20170E0E0912302F091240282EDE0
:1010300091E009951092F2010ACF1092F30134CF9A
:10104000ECE3F2E01382128288EE93E0A0E0B0E0DD
:1010500084839583A683B78387E191E0918380831E
:10106000E8E4F2E01382128289E291E091838083C6
:1010700087E2848380E1818782E0828713860895F6
:10108000CF93DF93CDB7DEB768970FB6F894DEBF86
:101090000FBECDBF789484B5826084BD84B5816075
:1010A00084BD85B5826085BD85B5816085BD809133
:1010B0006E00816080936E001092810080918100AB
:1010C00082608093810080918100816080938100A3
:1010D000809180008160809380008091B100846065
:1010E0008093B1008091B00081608093B0008091C6
:1010F0007A00846080937A0080917A008260809385
:101100007A0080917A00816080937A0080917A00E1
:10111000806880937A001092C10010922A02109287
:10112000290210922802109227020E9465038DE87E
:1011300090E090932602809325028EE890E09093B1
:1011400024028093230210924D0280915202823039
:1011500018F098E090934D028093500262E370E0A3
:1011600080E090E00E940C036091530288E492E0DA
:101170000E942A0468EE73E080E090E00E940C0375
:1011800060E388E492E00E9422050BE416E4C801C3
:101190000197F1F760E388E492E00E942205C8011C
:1011A0000197F1F760E388E492E00E94220583E56D
:1011B00092E00197F1F760E288E492E00E94220554
:1011C00060914D02606240E088E492E00E943B053D
:1011D00084E080934E0240E06CE088E492E00E945C
:1011E0003B0540E061E088E492E00E943B050BE3B0
:1011F0001FE1C8010197F1F782E080934F0240E0C0
:1012000066E088E492E00E943B0540E062E088E40A
:1012100092E00E943B05C8010197F1F788E08093B6
:10122000530260E088E492E00E942A0461E082E0D8
:101230000E94710161E083E00E94710161E084E03D
:101240000E94710162E08BE00E94710162E08CE01B
:101250000E94710162E08DE00E94710180E4809340
:101260007C0080917A00806480937A0080917A007B
:1012700086FDFCCF6091780070917900072E000CFC
:10128000880B990B611571058105910511F00E947C
:10129000320B83E0482E512C612C712CCE0101962B
:1012A0007C019BE3292E9FE1392E20E0822E20E055
:1012B000922E0E94E30AA30192010E943B0B8B0134
:1012C0000F5F1F4F66E671E0CE0143960E94B105A5
:1012D0008BE00E94EE00892B09F407C18CE00E948C
:1012E000EE00892B09F416C18DE00E94EE00892BD7
:1012F00079F70130110509F093C06AE371E0CE017E
:1013000043960E94ED0503E010E00AC0023011058B
:1013100009F07FC061E371E0CE0143960E94ED05C4
:1013200063E471E0C7010E94B1056CE471E0CE0195
:1013300007960E94B10561E571E0CE010D960E940D
:10134000B1058F89988D01501109892B09F4A0C02E
:10135000AB88BC886FE371E0C5010E94C60DE6E072
:10136000E09F6001E19FD00C1124CE0CDF1C892B83
:1013700009F061C061E084E00E94170180E00E94F2
:10138000520587E591E00E941505C6010E94BC0048
:1013900081E00E9452058EE591E00E941505CE0184
:1013A00043960E94BC008BE092E00E94A2016CED8B
:1013B00075E080E090E00E940C0360E084E00E9411
:1013C000170140E061E088E492E00E943B05C10122
:1013D0000197F1F785E00E9445018E010D5E1F4FD8
:1013E00006501109F80180819181009711F00E9447
:1013F000770CE016F106A1F78B899C89009711F014
:101400000E94770C8114910409F453CF0E940000CC
:1014100050CF0330110509F087C06AE371E080C046
:101420000230110519F46FE371E069CF0330110543
:1014300009F069CF6FCF6AE371E0C5010E94C60D64
:10144000892B31F561E082E00E94170180E00E9463
:10145000520587E591E00E941505C6010E94BC0077
:1014600081E00E9452058EE591E00E941505CE01B3
:1014700043960E94BC0086E091E00E94A2016CEDC0
:1014800075E080E090E00E940C0360E082E097CF7E
:1014900061E083E00E94170180E00E94520587E529
:1014A00091E00E941505F6E0F09FC001F19F900DBC
:1014B00011248E0D9F1D0E94BC0081E00E945205E8
:1014C0008EE591E00E941505CE0143960E94BC0076
:1014D00088E891E00E94A2016CED75E080E090E068
:1014E0000E940C0360E083E06ACF0130110509F42B
:1014F00011CF6AE371E00230110529F003301105C4
:1015000031F46FE371E0CE0143960E94ED0501E0F6
:1015100010E006CF0130110509F0F8CE6FE371E05D
:10152000CE0143960E94ED0502E010E0F9CE8F92C5
:101530009F92AF92BF92CF92DF92EF92FF92CF93A2
:10154000DF93EC01688179818A819B816115710546
:101550008105910521F464E279ED8BE597E02DE1B9
:1015600033EF41E050E00E943B0B49015A019B01DF
:10157000AC01A7EAB1E40E945A0B6B017C01ACEE0E
:10158000B4EFA50194010E94680BC60ED71EE81E99
:10159000F91EF7FE06C081E0C81AD108E10880E80C
:1015A000F80AC882D982EA82FB82C701B6019F7716
:1015B000DF91CF91FF90EF90DF90CF90BF90AF90F1
:1015C0009F908F9008958F929F92AF92BF92CF92EB
:1015D000DF92EF92FF926091010170910201809180
:1015E000030190910401611571058105910521F4B4
:1015F00064E279ED8BE597E02DE133EF41E050E0D7
:101600000E943B0B49015A019B01AC01A7EAB1E4DE
:101610000E945A0B6B017C01ACEEB4EFA501940162
:101620000E94680BC60ED71EE81EF91EF7FE06C004
:1016300081E0C81AD108E10880E8F80AC0920101E7
:10164000D0920201E0920301F0920401C701B601B9
:101650009F77FF90EF90DF90CF90BF90AF909F90DB
:101660008F900895609301017093020180930301AC
:10167000909304010895052E97FB1EF400940E9498
:10168000520B57FD07D00E94A40B07FC03D04EF469
:101690000C94520B50954095309521953F4F4F4FEC
:1016A0005F4F089590958095709561957F4F8F4F0E
:1016B0009F4F08950E94C60BA59F900DB49F900D5B
:1016C000A49F800D911D11240895B7FF0C945A0B0F
:1016D0000E945A0B821B930B08952F923F924F92B8
:1016E0005F926F927F928F929F92AF92BF92CF92B2
:1016F000DF92EF92FF920F931F93CF93DF93CDB7BB
:10170000DEB7CA1BDB0B0FB6F894DEBF0FBECDBF32
:1017100009942A88398848885F846E847D848C8403
:101720009B84AA84B984C884DF80EE80FD800C810C
:101730001B81AA81B981CE0FD11D0FB6F894DEBFEF
:101740000FBECDBFED010895A1E21A2EAA1BBB1B4F
:10175000FD010DC0AA1FBB1FEE1FFF1FA217B3077D
:10176000E407F50720F0A21BB30BE40BF50B661F93
:10177000771F881F991F1A9469F760957095809557
:1017800090959B01AC01BD01CF010895A29FB001CE
:10179000B39FC001A39F700D811D1124911DB29FA5
:1017A000700D811D1124911D0895EE0FFF1F0590EE
:1017B000F491E02D09940F931F93CF93DF93823020
:1017C000910510F482E090E0E0915602F09157020A
:1017D00030E020E0B0E0A0E0309799F42115310529
:1017E00009F44AC0281B390B24303105D8F58A8109
:1017F0009B816115710589F1FB0193838283FE0151
:1018000011C0408151810281138148175907E0F0CE
:101810004817590799F4109761F012960C93129794
:1018200013961C933296CF01DF91CF911F910F91A8
:1018300008950093560210935702F4CF21153105F5
:1018400051F04217530738F0A901DB019A01BD019D
:10185000DF01F801C1CFEF01F9CF909357028093D8
:101860005602CDCFFE01E20FF31F819391932250D8
:10187000310939832883D7CF209154023091550202
:10188000232B41F420910701309108013093550238
:101890002093540220910501309106012115310554
:1018A00041F42DB73EB74091090150910A01241B24
:1018B000350BE0915402F0915502E217F307A0F4C2
:1018C0002E1B3F0B2817390778F0AC014E5F5F4F96
:1018D0002417350748F04E0F5F1F50935502409371
:1018E0005402819391939FCFF0E0E0E09CCFCF939F
:1018F000DF930097E9F0FC01329713821282A091E6
:101900005602B0915702ED0130E020E01097A1F4AB
:1019100020813181820F931F209154023091550212
:101920002817390709F061C0F0935502E09354027B
:10193000DF91CF910895EA01CE17DF07E8F54A81DC
:101940005B819E0141155105B1F7E901FB83EA83F3
:1019500049915991C40FD51FEC17FD0761F480819F
:1019600091810296840F951FE90199838883828172
:1019700093819B838A83F0E0E0E012968D919C91A5
:1019800013970097B9F52D913C911197CD010296CF
:10199000820F931F20915402309155022817390766
:1019A00039F6309751F51092570210925602B093C3
:1019B0005502A0935402BCCFD383C283408151818E
:1019C000840F951FC817D90761F44E5F5F4F888158
:1019D0009981480F591F518340838A819B8193834A
:1019E00082832115310509F0B0CFF0935702E093BF
:1019F00056029ECFFD01DC01C0CF13821282D7CFE9
:101A0000B0E0A0E0E6E0FDE00C946F0B8C010097E5
:101A100051F4CB010E94DB0B8C01C801CDB7DEB7BE
:101A2000E0E10C948B0BFC01E60FF71F9C012250A8
:101A30003109E217F30708F49DC0D901CD91DC917B
:101A40001197C617D70798F0C530D10530F3CE01EE
:101A500004978617970708F3C61BD70B2297C193E5
:101A6000D1936D937C93CF010E94770CD6CF5B010D
:101A7000AC1ABD0A4C018C0E9D1EA0915602B0916D
:101A80005702512C412CF12CE12C109731F580910B
:101A90005402909155028815990509F05CC04616CC
:101AA000570608F058C080910501909106010097F3
:101AB00041F48DB79EB74091090150910A01841BF2
:101AC000950BE817F90708F055C0F0935502E0931D
:101AD0005402F90171836083A0CF8D919C9111977D
:101AE00012966C90129713967C901397A815B905CF
:101AF00059F56C0142E0C40ED11CCA14DB0420F17C
:101B0000AC014A195B09DA011296159780F06282DE
:101B1000738251834083D9016D937C93E114F10466
:101B200071F0D7011396FC93EE93129776CF22961D
:101B30008C0F9D1FF90191838083F301EFCFF09308
:101B40005702E093560269CF4816590608F42C0153
:101B50007D01D3019ACFCB010E94DB0B7C01009762
:101B600049F0AE01B8010E94BD0DC8010E94770C7A
:101B7000870153CF10E000E050CFFB01DC0102C031
:101B800001900D9241505040D8F70895FB01DC01BF
:101B90008D91019080190110D9F3990B0895FB01E3
:101BA000DC0101900D920020E1F70895F894FFCF39
:101BB000FF010000000000580280000000400014F7
:101BC00000540000000000FB03CE031205A403C76D
:101BD00003B403A5030000000083058F0012051164
:101BE000057769746864726177006C6F736500775C
:101BF000696E0053636973736F727300726F636B06
:101C000000506170657200496E7075743A004F75CE
:081C100074636F6D653A00007A
:107E0000112484B714BE81FFF0D085E080938100F7
:107E100082E08093C00088E18093C10086E0809377
:107E2000C20080E18093C4008EE0C9D0259A86E02C
:107E300020E33CEF91E0309385002093840096BBD3
:107E4000B09BFECF1D9AA8958150A9F7CC24DD24C4
:107E500088248394B5E0AB2EA1E19A2EF3E0BF2EE7
:107E6000A2D0813461F49FD0082FAFD0023811F036
:107E7000013811F484E001C083E08DD089C08234E0
:107E800011F484E103C0853419F485E0A6D080C0E4
:107E9000853579F488D0E82EFF2485D0082F10E0AE
:107EA000102F00270E291F29000F111F8ED06801E7
:107EB0006FC0863521F484E090D080E0DECF843638
:107EC00009F040C070D06FD0082F6DD080E0C81688
:107ED00080E7D80618F4F601B7BEE895C0E0D1E017
:107EE00062D089930C17E1F7F0E0CF16F0E7DF06D8
:107EF00018F0F601B7BEE89568D007B600FCFDCFD4
:107F0000A601A0E0B1E02C9130E011968C91119780
:107F100090E0982F8827822B932B1296FA010C0160
:107F200087BEE89511244E5F5F4FF1E0A038BF0790
:107F300051F7F601A7BEE89507B600FCFDCF97BE46
:107F4000E89526C08437B1F42ED02DD0F82E2BD052
:107F50003CD0F601EF2C8F010F5F1F4F84911BD097
:107F6000EA94F801C1F70894C11CD11CFA94CF0C13
:107F7000D11C0EC0853739F428D08EE10CD085E9AC
:107F80000AD08FE07ACF813511F488E018D01DD067
:107F900080E101D065CF982F8091C00085FFFCCF94
:107FA0009093C60008958091C00087FFFCCF809118
:107FB000C00084FD01C0A8958091C6000895E0E648
:107FC000F0E098E1908380830895EDDF803219F02E
:107FD00088E0F5DFFFCF84E1DECF1F93182FE3DFCA
:107FE0001150E9F7F2DF1F91089580E0E8DFEE27F6
:047FF000FF270994CA
:027FFE00040479
:00000001FF
