:100000000C9462000C948A000C948A000C948A0070
:100010000C948A000C948A000C948A000C948A0038
:100020000C948A000C948A000C948A000C948A0028
:100030000C948A000C948A000C948A000C948A0018
:100040000C94A7040C948A000C948A000C948A00E7
:100050000C948A000C948A000C948A000C948A00F8
:100060000C94F1040C948A00000000002400270086
:100070002A0000000000250028002B0000000000DE
:1000800023002600290004040404040404040202DA
:100090000202020203030303030301020408102007
:1000A0004080010204081020010204081020000012
:1000B0000008000201000003040700000000000027
:1000C0000000100611241FBECFEFD8E0DEBFCDBF69
:1000D00011E0A0E0B1E0ECE6FFE002C005900D9277
:1000E000AC3BB107D9F722E0ACEBB1E001C01D9207
:1000F000A739B207E1F710E0C2E6D0E004C02197CB
:10010000FE010E94AE07C136D107C9F70E94300632
:100110000C94B4070C94000008950895AF92BF9218
:10012000CF92DF92EF92FF920F931F93CF93DF93C3
:100130006C017B018B01040F151FEB015E01AE18F2
:10014000BF08C017D10759F06991D601ED91FC9114
:100150000190F081E02DC6010995892B79F7C50141
:10016000DF91CF911F910F91FF90EF90DF90CF9093
:10017000BF90AF900895833081F028F4813099F0DA
:100180008230A9F008958730A9F08830C9F0843012
:10019000B1F4809180008F7D03C0809180008F77C3
:1001A00080938000089584B58F7784BD089584B5C9
:1001B0008F7DFBCF8091B0008F778093B000089542
:1001C0008091B0008F7DF9CFCF93DF93282F30E05F
:1001D000F901E255FF4F8491F901E656FF4FD491A2
:1001E000F901EA57FF4FC491CC23A1F081110E947D
:1001F000BB00EC2FF0E0EE0FFF1FE458FF4FA5917E
:10020000B491EC91ED2381E090E009F480E0DF917E
:10021000CF91089580E090E0FACF1F93CF93DF93C2
:10022000282F30E0F901E255FF4F8491F901E6569D
:10023000FF4FD491F901EA57FF4FC491CC23A9F0A5
:10024000162F81110E94BB00EC2FF0E0EE0FFF1F74
:10025000EE58FF4FA591B4918FB7F894EC9111111E
:1002600008C0D095DE23DC938FBFDF91CF911F9123
:100270000895DE2BF8CFCF93DF9390E0FC01E65694
:10028000FF4F24918A579F4FFC0184918823D1F01E
:1002900090E0880F991FFC01E859FF4FA591B49198
:1002A000FC01EE58FF4FC591D491623071F49FB7B5
:1002B000F8943C91822F809583238C93E8812E2B98
:1002C00028839FBFDF91CF9108958FB7F894EC9169
:1002D0002E2B2C938FBFF6CF3FB7F89480917302EB
:1002E00090917402A0917502B091760226B5A89BF8
:1002F00005C02F3F19F00196A11DB11D3FBFBA2FB8
:10030000A92F982F8827BC01CD01620F711D811D77
:10031000911D42E0660F771F881F991F4A95D1F7FC
:1003200008958F929F92AF92BF92CF92DF92EF92F9
:10033000FF924B015C010E946C016B017C010E94E9
:100340006C016C197D098E099F09683E7340810517
:100350009105A8F321E0821A9108A108B10888EE5E
:10036000C80E83E0D81EE11CF11C81149104A10485
:10037000B10429F7FF90EF90DF90CF90BF90AF903E
:100380009F908F90089508952091FD01260F3327A7
:10039000331F21323105ECF420914602FC0190E03C
:1003A00080E0243069F082E00895A091FD01219160
:1003B000AC0143525E4FA40FB52FB11D2C93019693
:1003C000861798F38091FD01680F6093FD0180E02E
:1003D000089581E008951092460281E080934502DD
:1003E0001092200261E082E10E940D0161E083E150
:1003F0000E940D01E9EBF0E080818E7F8083808197
:100400008D7F808388E48093B80085E48093BC006E
:100410000895CF93DF9391E09093DC018823B9F0A6
:10042000C091B800D091BA008091BC008A7B8093C3
:10043000BC0060E082E10E940D0160E083E10E9467
:100440000D010E94EB01D093BA00C093B800DF9178
:10045000CF9108950895E0917E0280917D02E81782
:1004600030F4F0E0E454FE4F808190E008958FEF87
:100470009FEF089590917E0280917D022FEF3FEFD4
:10048000981748F4E92FF0E0E454FE4F208130E063
:100490009F5F90937E02C901089580917D029091A3
:1004A0007E02891B990B0895CF92DF92EF92FF9203
:1004B0000F931F93CF93DF937C01CB018A0120918F
:1004C0004C02222389F0EB016B01C40ED51ECC1522
:1004D000DD0569F06991D701ED91FC910190F08102
:1004E000E02DC7010995F3CF642F0E94C401C80114
:1004F000DF91CF911F910F91FF90EF90DF90CF9000
:100500000895CF93DF931F92CDB7DEB76983209113
:100510004C022223F9F020917B02203258F021E096
:1005200030E0FC013383228390E080E00F90DF9184
:10053000CF91089580917C02E82FF0E0E35BFD4FBE
:10054000998190838F5F80937C0280937B0281E00E
:1005500090E0ECCF61E0CE0101960E94C401F7CF9C
:10056000CF92DF92EF92FF920F931F93CF93DF937F
:10057000FC01C48121E020934C02C0936D021092D3
:100580007C0210927B028385682B8FE792E00E94A9
:100590008102D0917B02D13208F092C00E946C019E
:1005A0006B017C0180914602811165C082E08093DD
:1005B000460281E0809345028FEF809344021092BF
:1005C0004302D0934202ADE4B2E0E2E2F2E080E026
:1005D000D81385C01092210280912102CC0FC82B24
:1005E000C093210280912002813009F07CC01092DA
:1005F00020020E946C016B017C018091210280939A
:10060000BB008091480290914902A0914A02B091AA
:100610004B02892B8A2B8B2B99F00E946C01009145
:1006200048021091490220914A0230914B026C1904
:100630007D098E099F090617170728073907E0F17A
:100640008091BC0083FDD9CF85EC8093BC000E94D3
:100650006C016B017C0180914602823009F445C037
:10066000809144028F3F61F180914402803241F1D8
:100670008091440225C08091480290914902A09146
:100680004A02B0914B02892B8A2B8B2B09F48ACF1B
:100690000E946C01009148021091490220914A0287
:1006A00030914B026C197D098E099F0906171707B7
:1006B0002807390708F076CF809147020E94090287
:1006C00010927C0210927B0210924C02DF91CF912B
:1006D0001F910F91FF90EF90DF90CF9008959D9123
:1006E00091938F5F75CF85EEB0CF80914802909146
:1006F0004902A0914A02B0914B02892B8A2B8B2B85
:1007000009F4A9CF0E946C0100914802109149029E
:1007100020914A0230914B026C197D098E099F0984
:10072000061717072807390708F095CFC5CF90E0BF
:1007300080E00895FC0101900020E9F73197AF01B6
:10074000481B590BBC018BE892E00C948E000F9370
:100750001F93CF938C01C62F0E94B0026C2F646050
:10076000C8010E94B0026C2F6B7FC8010E94B002CA
:1007700083EC90E00197F1F7CF911F910F910895CD
:100780000F931F93CF93DF938C01D62FC42F607FDD
:10079000642B0E94A70380E1D89FB00111246C2B29
:1007A000C801DF91CF911F910F910C94A703CF93B4
:1007B000DF93CDB7DEB728970FB6F894DEBF0FBE34
:1007C000CDBF98E0E2E0F1E0DE01119601900D92DC
:1007D0009A95E1F790919302981708F48FEF90E0C3
:1007E000880F991F21E030E02C0F3D1F820F931FCF
:1007F000FC016081606840E08BE892E028960FB6CB
:10080000F894DEBF0FBECDBFDF91CF910C94C00333
:1008100040E061E08BE892E00E94C0038BE39FE13F
:100820000197F1F70895E0910001F0910101E7309F
:10083000F10588F4E25EFB4F0C94AE0725042C040E
:100840003904450451045D04660481E090E090930E
:1008500001018093000108950E94080488E291E05C
:100860000E949A0381E00E94D70380E391E00C94F8
:100870009A030E94080488E391E00E949A0381E0B1
:100880000E94D70380E491E0F2CF0E94080488E43C
:1008900091E00E949A0381E00E94D70380E591E0F5
:1008A000E6CF0E94080488E591E00E949A0381E067
:1008B0000E94D70380E691E0DACF0E94080480E02E
:1008C0000E94D70388E691E00E949A0385E090E0B9
:1008D000BECF41E00E94C00381E090E0089585ED25
:1008E0008093BC008091480290914902A0914A02F5
:1008F000B0914B020796A11DB11D23E0B695A795B7
:10090000979587952A95D1F72091BC0024FD03C0C7
:100910001092460208954091480250914902609118
:100920004A0270914B02452B462B472B69F30097E7
:10093000A105B10541F02AE22A95F1F700C001971F
:10094000A109B109E1CF809147020C9409021F92DD
:100950000F920FB60F9211242F933F938F939F9373
:10096000AF93BF9380916F0290917002A09171023A
:10097000B091720230916E0223E0230F2D3758F5AB
:100980000196A11DB11D20936E0280936F0290937A
:100990007002A0937102B0937202809173029091E1
:1009A0007402A0917502B09176020196A11DB11D4D
:1009B0008093730290937402A0937502B0937602B1
:1009C000BF91AF919F918F913F912F910F900FBE4B
:1009D0000F901F90189526E8230F0296A11DB11DB8
:1009E000D2CF1F920F920FB60F9211242F933F93E5
:1009F0004F935F936F937F938F939F93AF93BF9327
:100A0000EF93FF938091B900887F803609F44AC044
:100A1000F0F5883209F4A7C018F5803109F49BC0BD
:100A2000B8F4882309F4F9C0883009F494C0FF9120
:100A3000EF91BF91AF919F918F917F916F915F9156
:100A40004F913F912F910F900FBE0F901F901895CF
:100A5000883109F488C0803251F78093440214C071
:100A6000803409F49DC040F48033B9F38833F9F63B
:100A70008093440285ECB0C0803509F485C0883588
:100A800009F496C0883499F60E946F04D0CF883953
:100A900009F48CC038F5883729F050F4883611F005
:100AA000803729F683E08093460210921F0257C0D8
:100AB000883809F47BC0803919F0803809F0B7CF45
:100AC00080911F02803208F071C0E0911F0281E026
:100AD0008E0F80931F028091BB00F0E0E150FE4F2B
:100AE00080833DC0803B39F0E0F4803A09F479C05E
:100AF000883A09F09CCF84E0809346021092FE0170
:100B00001092FD01E0917902F0917A0209958091AD
:100B1000FD0181110FC081E08093FD011092DD0184
:100B200009C0803C09F4A6CF883C09F4A3CF883BD8
:100B300009F07DCFE091FE0181E08E0F8093FE01F0
:100B4000F0E0E352FE4F80818093BB009091FE0164
:100B50008091FD0129C0809121028093BB0085EC2A
:100B60008093BC0064CF9091430280914202981719
:100B700058F5E091430281E08E0F80934302F0E04C
:100B8000EE5DFD4F8081E9CFE091430281E08E0F61
:100B9000809343028091BB00F0E0EE5DFD4F8083C7
:100BA00090914302809142029817C8F285E8D8CF0D
:100BB000E091430281E08E0F809343028091BB005D
:100BC000F0E0EE5DFD4F80838091450281115CCFA6
:100BD00081E08093200284EA8093BC001092460258
:100BE00026CF85EC8093BC001092460280911F02B4
:100BF000803230F4E0911F02F0E0E150FE4F1082AD
:100C000060911F0270E0E0917702F09178028FEF1F
:100C100091E0099510921F020ACF1092440234CF3E
:100C2000EFE7F2E01382128288EE93E0A0E0B0E0FA
:100C300084839583A683B7838EE091E0918380833C
:100C4000EBE8F2E01382128280E291E091838083EC
:100C500087E2848380E1818782E08287138608951A
:100C6000789484B5826084BD84B5816084BD85B587
:100C7000826085BD85B5816085BD80916E00816093
:100C800080936E0010928100809181008260809339
:100C9000810080918100816080938100809180003B
:100CA0008160809380008091B10084608093B10066
:100CB0008091B00081608093B00080917A00846060
:100CC00080937A0080917A00826080937A0080918C
:100CD0007A00816080937A0080917A0080688093A6
:100CE0007A001092C10010927E0210927D02109242
:100CF0007C0210927B020E94EB018CE890E09093C2
:100D00007A02809379028DE890E090937802809344
:100D100077021092900280919502823018F098E04C
:100D2000909390028093930262E370E080E090E001
:100D30000E949101609196028BE892E00E94B002BD
:100D400068EE73E080E090E00E94910160E38BE840
:100D500092E00E94A703CBE4D6E4CE010197F1F71D
:100D600060E38BE892E00E94A7032197F1F760E32C
:100D70008BE892E00E94A70383E592E00197F1F7E8
:100D800060E28BE892E00E94A703609190026062AB
:100D900040E08BE892E00E94C00384E080939102DF
:100DA00040E06CE08BE892E00E94C0030E940804DF
:100DB00082E08093920240E066E08BE892E00E943D
:100DC000C00340E062E08BE892E00E94C0038BE346
:100DD0009FE10197F1F788E08093960260E08BE84D
:100DE00092E00E94B00261E080E10E943B0161E07C
:100DF0008FE00E943B0161E08AE00E943B0162E0DB
:100E00008BE00E943B0162E08DE00E943B0162E0CA
:100E10008CE00E943B010E941304C0E0D0E08DE012
:100E20000E94E400892BB1F48091000190910101AE
:100E3000019690930101809300010E94130464E6DF
:100E400070E080E090E00E9491018DE00E94E4005B
:100E5000892BD9F38BE00E94E400892BB1F48091B7
:100E6000000190910101019790930101809300018D
:100E70000E94130464E670E080E090E00E9491011B
:100E80008BE00E94E400892BD9F38CE00E94E400FF
:100E9000892BD9F480910001909101018330910553
:100EA00009F446C0C4F48130910551F10297B9F1BB
:100EB0000E94130464E670E080E090E00E949101DB
:100EC0008CE00E94E400892BD9F3209709F4A7CF86
:100ED0000E940000A4CF8430910599F1059741F755
:100EE0000E9408048CEA91E00E949A0360E080E18D
:100EF0000E940D0160E08FE00E940D0160E01FC0C4
:100F00000E94080480E791E00E949A0361E080E17A
:100F10000E940D0168EE73E080E090E01CC00E942A
:100F200008048EE791E00E949A0361E08FE0F0CF21
:100F30000E9408048EE891E00E949A0361E08AE032
:100F4000E7CF0E9408048EE991E00E949A036CEDBD
:100F500075E080E090E00E949101AACFEE0FFF1FA4
:0C0F60000590F491E02D0994F894FFCF67
:100F6C000100000040001400540000000000810249
:100F7C00540297032A024D023A022B020000000091
:100F8C0069048E009703C3013E47616D65203100F3
:100F9C002047616D652032002047616D652031006E
:100FAC003E47616D652032003E47616D6520330020
:100FBC002047616D652034002047616D652033004A
:100FCC003E47616D652034003E47616D65203500FC
:100FDC003E6F70656E20726564206C6564003E6FB8
:100FEC0070656E2079656C6C6F206C6564003E6F6B
:100FFC0070656E20677265656E206C6564003E4599
:10100C007865637574696E67202334003E636C6F7A
:0C101C00736520616C6C206C6564000042
:00000001FF
